:1000000045C0000058C0000056C0000054C00000A9
:1000100052C0000050C000004EC000004CC00000A4
:100020004AC0000048C0000046C0000044C00000B4
:1000300042C0000040C000003EC000003CC00000C4
:100040003AC0000038C0000036C0000034C00000D4
:1000500032C0000030C000002EC000002CC00000E4
:100060002AC0000028C0000026C0000024C00000F4
:1000700022C0000020C000001EC000001CC0000004
:100080001AC0000018C0000016C0000011241FBED6
:10009000CFEFD0E1DEBFCDBF17E0A0E0B1E0EAEFE7
:1000A000F3E000E00BBF02C007900D92AE3CB10739
:1000B000D9F702D0A0C1A4CF33D055D02FEF84E31D
:1000C0009CE0215080409040E1F700C000006FE1CB
:1000D00070E08EEA97E052D12FEF82E597E0215051
:1000E00080409040E1F700C00000F1CF1092710015
:1000F00080E280937000089584EA80937400E4E7BE
:10010000F0E080818823ECF708958093730084E801
:1001100080937400E4E7F0E080818823ECF7089591
:100120001F93CF93DF93E2DFE7DF80EEEEDF81E224
:10013000ECDFC4E7D0E014E91883DEDF80EEE5DF12
:1001400080EAE3DF1883D8DF80EEDFDF83EEDDDFD8
:100150001883D2DF80EED9DF81E8D7DF1883DF9103
:10016000CF911F9108950F931F93CF93DF93C0E01A
:1001700004E710E0D4E9C0DF80EEC7DF8C2FC5DFD5
:1001800080E0C3DFF801D0838FE19EE40197F1F7AF
:1001900000C00000CE5FC03171F7DF91CF911F9199
:1001A0000F9108952F923F924F925F926F927F929C
:1001B0008F929F92AF92BF92CF92DF92EF92FF9277
:1001C0000F931F93CF93DF93CDB7DEB72A970FB668
:1001D000F894DEBF0FBECDBFDC016D907C90930123
:1001E000220F331F260D371DF901EE0FFF1FFE836F
:1001F000ED831E161F060CF48DC0A7C09A8289825B
:10020000D4011296ED91FC911397EE0FFF1FCF01D1
:10021000880F991F880F991F880F991FE80FF91FE2
:10022000E050FF4FE080F1801E141F04C4F50B81E5
:100230001C8129853A852415350534F122163306AB
:100240001CF15ADF80EE61DF8A2D5FDFA981BA8160
:1002500012968D919C911397FC01EE0FFF1FEE0FEC
:10026000FF1FEE0FFF1FE80FF91FE00FF11FEE0F4A
:10027000FF1FE050FF4F808148DF24E9E4E7F0E012
:10028000208332E0A30EB11C49855A854F5F5F4F32
:100290005A8749870F5F1F4FE016F10654F689858C
:1002A0009A85841595058CF02816390674F024DF9C
:1002B00080EE2BDF8A2D29DF80E027DFE4E9A4E749
:1002C000B0E0EC93F2E0AF0EB11C29853A852F5FC8
:1002D0003F4F3A8729873FEF631A730A42E0840E43
:1002E000911CC614D7040CF089CF5FEF80E792E031
:1002F000515080409040E1F700C00000AFEF4A1A33
:100300005A0ABFEF2B1A3B0AED81FE814E165F069B
:1003100069F41BC06894222423F8312C412C512C01
:100320008F839887F1E0FB831C8263011C141D04FA
:10033000E4F68F80988466246394712C00E010E0CA
:10034000A12CB12C1A87098759CF2A960FB6F89499
:10035000DEBF0FBECDBFDF91CF911F910F91FF90F8
:10036000EF90DF90CF90BF90AF909F908F907F9055
:100370006F905F904F903F902F9008950F931F9331
:10038000CF93DF93CDB7DEB7582F492F0DB71EB7E8
:100390009B01220F331F8DB79EB7821B930B0FB6A5
:1003A000F8949EBF0FBE8DBF01969B01215031096D
:1003B000EDB7FEB732832183161617068CF4E52FAE
:1003C000F42FDC01129641E050E0219130E0205200
:1003D00031092D933D934F5F5F4F64177507ACF75D
:1003E000E1DE0FB6F8941EBF0FBE0DBFDF91CF91B7
:0A03F0001F910F910895F894FFCFBC
:1003FA0005000000000000000000000000000000EE
:10040A0000000500000038007D00380000000000F0
:10041A00000000000500500060000000500060006D
:10042A00000000000000050014007F0014007F0097
:10043A001400000000000000050012002A007F00DE
:10044A002A00240000000000000005006200640089
:10045A000800130023000000000000000500360019
:10046A0049005500220005000000000000000500B8
:10047A0000005000600000000000000000000000C2
:10048A00050000001C0022004100000000000000DE
:10049A00000005000000410022001C0000000000CE
:1004AA00000000000500140008003E0008001400C7
:1004BA000000000000000500080008003E000800D7
:1004CA00080000000000000005000000050006000A
:1004DA0000000000000000000000050008000800FD
:1004EA0008000800080000000000000005000000E5
:1004FA0003000300000000000000000000000500E7
:10050A0002000400080010002000000000000000A3
:10051A0005003E004500490051003E000000000071
:10052A0000000500110021007F0001000100000009
:10053A000000000005002100430045004900310089
:10054A0000000000000005002200410049004900A7
:10055A00360000000000000005000C001400240012
:10056A007F00040000000000000005007200510036
:10057A00510051004E0000000000000005003E003E
:10058A00490049004900260000000000000005005B
:10059A0040004700480050006000000000000000D2
:1005AA0005003600490049004900360000000000F5
:1005BA000000050032004900490049003E000000E1
:1005CA0000000000050000003600360000000000B0
:1005DA0000000000000005000000350036000000A1
:1005EA0000000000000000000500080014002200BE
:1005FA004100000000000000000005001400140083
:10060A00140014001400000000000000050000009F
:10061A00410022001400080000000000000005004C
:10062A0020004000450048003000000000000000A3
:10063A0005003E004900570055003E00000000003A
:10064A00000005001F002400440024001F000000D1
:10065A000000000005007F004900490049003600FB
:10066A0000000000000005003E004100410041007A
:10067A00220000000000000005007F004100410048
:10068A0022001C0000000000000005007F00490055
:10069A0049004100410000000000000005007F0001
:1006AA004800480048004000000000000000050023
:1006BA003E00410041004500260000000000000005
:1006CA0005007F000800080008007F000000000005
:1006DA0000000500410041007F0041004100000088
:1006EA0000000000050002000100010001007E0078
:1006FA0000000000000005007F000800140022002E
:10070A00410000000000000005007F000100010018
:10071A000100010000000000000005007F00200029
:10072A00100020007F0000000000000005007F008C
:10073A001000080004007F0000000000000005000F
:10074A003E004100410041003E0000000000000060
:10075A0005007F0048004800480030000000000003
:10076A00000005003E004100450042003D00000037
:10077A000000000005007F0048004C004A003100DC
:10078A00000000000000050032004900490049004D
:10079A0026000000000000000500400040007F0025
:1007AA004000400000000000000005007E0001003B
:1007BA00010001007E0000000000000005007C002E
:1007CA000200010002007C00000000000000050099
:1007DA007E000100060001007E000000000000000B
:1007EA000500630014000800140063000000000004
:1007FA0000000500600010000F00100060000000FB
:10080A000000000005004300450049005100610056
:10081A00000000000000050000007F0041004100C8
:10082A000000000000000000050020001000080081
:10083A000400020000000000000005000000410062
:10084A0041007F00000000000000000005001000C9
:10085A0020004000200010000000000000000500F9
:10086A000100010001000100010000000000000079
:10087A0005000000400020001000000000000000F9
:10088A00000005000200150015000E00010000001E
:10089A0000000000050040007E00090011000E0063
:1008AA0000000000000005000E00110011001100F8
:1008BA000A0000000000000005000E0011004A00B6
:1008CA007F00010000000000000005000E00150076
:1008DA0015001500090000000000000005000100D5
:1008EA0009003F0048002000000000000000050049
:1008FA0009001500150015001E0000000000000088
:10090A0005007F000800080008000700000000003A
:10091A0000000500000000002E0001000100000098
:10092A0000000000050002000100010001005E0055
:10093A00000000000000050001007F0004000A001A
:10094A0011000000000000000500000041007F00C7
:10095A000100000000000000000005001F00100058
:10096A000E0010001F0000000000000005001F001C
:10097A000800100010000F00000000000000050031
:10098A000E001100110011000E000000000000000E
:10099A0005007F0014001400140008000000000085
:1009AA00000005000800140014001F0001000000E8
:1009BA000000000005001F000800100010000800D9
:1009CA0000000000000005000900150015001500D0
:1009DA0012000000000000000500100010007E0058
:1009EA001100120000000000000005001E000100B6
:1009FA0001001E00010000000000000005001C00AC
:100A0A000200010002001C000000000000000500B6
:100A1A001E000100060001001E0000000000000088
:100A2A00050011000A0004000A001100000000007D
:100A3A000000050010000900060008001000000070
:100A4A000000000005001100130015001900110034
:100A5A0000000000000005000800360041004100C7
:100A6A0000000000000000000500000000007F00F8
:100A7A000000000000000000000005000000410026
:100A8A0041003600080000000000000005002000B8
:100A9A004000200010002000000000000000484F25
:100AAA004931206A65322062656E742D207B656546
:0E0ABA006E2C7D20626F6566212121210000D7
:00000001FF
